:020000040800F2
:10000000004000200D0B0008950A00089B0A00081C
:10001000A10A0008A70A0008AD0A000800000000B5
:10002000000000000000000000000000550B000868
:10003000B30A000800000000BF0A0008CB0A00084D
:10004000550B0008550B0008550B0008550B000810
:10005000550B0008550B0008550B0008550B000800
:10006000550B0008550B0008550B0008D90A00086D
:10007000550B0008550B0008550B0008550B0008E0
:10008000550B0008550B0008550B0008550B0008D0
:10009000ED0A0008550B0008550B0008550B000829
:1000A00000000000550B0008550B0008550B000818
:1000B000550B0008550B0008550B0008550B0008A0
:1000C000550B0008550B0008550B0008550B000890
:1000D000550B0008550B0008550B0008550B000880
:1000E000550B0008550B0008550B0008550B000870
:1000F000550B000800000000000000000000000098
:1001000000000000000000000000000000000000EF
:1001100000000000000000000000000000000000DF
:1001200000000000000000000000000000000000CF
:0C01300000000000000000005FF808F173
:10013C0010B5054C237833B9044B13B10448AFF315
:10014C0000800123237010BD8001002000000000FE
:10015C0020A1000808B5034B1BB103490348AFF3BA
:10016C00008008BD000000008401002020A10008D0
:10017C0053B94AB9002908BF00281CBF4FF0FF3102
:10018C004FF0FF3000F076B9ADF1080C6DE904CEFC
:10019C0000F006F8DDF804E0DDE9022304B0704756
:1001AC002DE9F047089E0D4604468846002B4DD19C
:1001BC008A42944668D9B2FA82F252B101FA02F339
:1001CC00C2F1200120FA01F10CFA02FC41EA030809
:1001DC0094404FEA1C41B8FBF1F71FFA8CFE01FB6F
:1001EC00178807FB0EF0230C43EA084398420AD900
:1001FC001CEB030307F1FF3580F01E81984240F29F
:10020C001B81023F63441B1AB3FBF1F001FB10335B
:10021C0000FB0EFEA4B244EA0344A6450AD91CEB2B
:10022C00040400F1FF3380F00981A64540F20681F9
:10023C00644402380021A4EB0E0440EA07401EB1CE
:10024C000023D440C6E90043BDE8F0878B4208D9AF
:10025C00002E00F0EE800021C6E900050846BDE83E
:10026C00F087B3FA83F100294AD1AB4202D3824220
:10027C0000F2FC80841A65EB030301209846002EE3
:10028C00E2D0C6E90048DFE702B9FFDEB2FA82F23B
:10029C00002A40F09180A1EB0C0001214FEA1C4791
:1002AC001FFA8CFEB0FBF7F307FB1300250C45EA95
:1002BC0000450EFB03F0A84208D91CEB050503F121
:1002CC00FF3802D2A84200F2CE8043462D1AB5FB6D
:1002DC00F7F007FB10550EFB00FEA4B244EA0544F0
:1002EC00A64508D91CEB040400F1FF3502D2A64543
:1002FC0000F2B6802846A4EB0E0440EA03409EE7C9
:10030C00C1F120078B4022FA07FC4CEA030C25FABA
:10031C0007FA4FEA1C49BAFBF9F820FA07F309FB74
:10032C0018AA8D401FFA8CFE1D4300FA01F308FB3E
:10033C000EF02C0C44EA0A44A04202FA01F20BD94A
:10034C001CEB040408F1FF3A80F08880A04240F2D4
:10035C008580A8F102086444241AB4FBF9F009FB67
:10036C00104400FB0EFEADB245EA0444A64508D984
:10037C001CEB040400F1FF356CD2A6456AD9023897
:10038C00644440EA0840A0FB0295A4EB0E04AC4286
:10039C00C846AE4656D353D0002E69D0B3EB0802F4
:1003AC0064EB0E0422FA01F304FA07F71F43CC4066
:1003BC00C6E90074002147E70CFA02FCC2F12001E7
:1003CC0025FA01F34FEA1C4720FA01F195400D4341
:1003DC00B3FBF7F107FB11331FFA8CFE280C40EA34
:1003EC00034001FB0EF3834204FA02F408D91CEB20
:1003FC00000001F1FF382FD283422DD9023960441D
:10040C00C01AB0FBF7F307FB1300ADB245EA004589
:10041C0003FB0EF0A84208D91CEB050503F1FF38CD
:10042C0016D2A84214D9023B6544281A43EA01416A
:10043C0038E73146304607E72F46E4E61846F9E63A
:10044C004B45A9D2B9EB020865EB0C0E0138A3E7BA
:10045C004346EAE7284694E74146D1E7D0467BE796
:10046C006444023847E7023B65442FE7084606E739
:10047C003146E9E6704700BF80B584B000AF3B1D44
:10048C0000221A605A609A60814B824A1A60804B33
:10049C0000225A607E4B00229A607D4B0022DA606B
:1004AC007B4B4FF480721A61794B00225A61784B66
:1004BC0000229A61764B0022DA61754B00221A6297
:1004CC00734B012283F82420714B0E229A62704BDD
:1004DC00002283F82C206E4B10225A636C4B0022A6
:1004EC009A636B4B012283F83C20694800F0BEFBF9
:1004FC000346002B01D000F089FA00237B60012316
:10050C00BB600723FB603B1D1946614800F05CFF94
:10051C000346002B01D000F079FA01237B60022303
:10052C00BB603B1D19465A4800F04EFF0346002B9A
:10053C0001D000F06BFA02237B600323BB603B1DF0
:10054C001946534800F040FF0346002B01D000F041
:10055C005DFA03237B600423BB603B1D19464C48AA
:10056C0000F032FF0346002B01D000F04FFA0623B7
:10057C007B600523BB603B1D1946454800F024FFFA
:10058C000346002B01D000F041FA07237B600623C1
:10059C00BB603B1D19463E4800F016FF0346002B7E
:1005AC0001D000F033FA08237B600723BB603B1DAE
:1005BC001946374800F008FF0346002B01D000F025
:1005CC0025FA09237B600823BB603B1D1946304884
:1005DC0000F0FAFE0346002B01D000F017FA1223AC
:1005EC007B600923BB603B1D1946294800F0ECFEDB
:1005FC000346002B01D000F009FA13237B600A2379
:10060C00BB603B1D1946224800F0DEFE0346002B62
:10061C0001D000F0FBF914237B600B23BB603B1D66
:10062C0019461B4800F0D0FE0346002B01D000F009
:10063C00EDF915237B600C23BB603B1D1946144858
:10064C0000F0C2FE0346002B01D000F0DFF91023AE
:10065C007B600D23BB603B1D19460D4800F0B4FEBA
:10066C000346002B01D000F0D1F911237B600E233F
:10067C00BB603B1D1946064800F0A6FE0346002B46
:10068C0001D000F0C3F900BF1037BD4680BD00BFDC
:10069C009C0100200024014080B58AB000AF786036
:1006AC0007F1140300221A605A609A60DA601A612A
:1006BC007B681B68354A934264D1354B1B6A344ABC
:1006CC0043F400731362324B1B6A03F400733B61F7
:1006DC003B692F4BDB692E4A43F00103D3612C4B52
:1006EC00DB6903F00103FB60FB68294BDB69284ADB
:1006FC0043F00203D361264BDB6903F00203BB60BA
:10070C00BB68CF237B610323BB610023FB6107F133
:10071C00140319461F4801F013FF4FF203037B61CA
:10072C000323BB610023FB6107F1140319461A482C
:10073C0001F006FF194B1A4A1A60184B00225A6036
:10074C00164B00229A60154B8022DA60134B4FF443
:10075C0080721A61114B4FF480625A610F4B002268
:10076C009A610E4B0022DA610C4801F061FC0346E1
:10077C00002B01D000F04AF97B68084A5A64074AFA
:10078C007B68536200BF2837BD4680BD0024014002
:10079C00003802400000024000040240F00100203A
:1007AC000860024080B582B000AF3B4600221A6060
:1007BC005A60144B144A1A60124801F0C3FA0346EB
:1007CC00002B01D000F022F900233B6000237B605A
:1007DC003B46002219460B4801F094FB0346002BC4
:1007EC0001D000F013F93B4610221946054801F0E0
:1007FC0089FB0346002B01D000F008F900BF083735
:10080C00BD4680BD340200200074004080B58AB023
:10081C0000AF786007F1140300221A605A609A60E6
:10082C00DA601A617B681B68154A934223D1154B19
:10083C005B6A144A43F000535362124B5B6A03F039
:10084C0000533B613B690F4BDB690E4A43F00103DC
:10085C00D3610C4BDB6903F00103FB60FB683023B5
:10086C007B610323BB610023FB6107F11403194671
:10087C00054801F065FE00BF2837BD4680BD00BFAE
:10088C0000740040003802400000024080B582B085
:10089C0000AF0C4BDB690B4A43F08073D361094BFF
:1008AC00DB6903F080737B607B68002200210B20E6
:1008BC0001F0F8F90B2001F021FA00BF0837BD4612
:1008CC0080BD00BF0038024080B588B000AF07F192
:1008DC000C0300221A605A609A60DA601A61174B96
:1008EC00DB69164A43F00103D361144BDB6903F057
:1008FC000103BB60BB68114BDB69104A43F0020378
:10090C00D3610E4BDB6903F002037B607B68002232
:10091C00F0210B4802F060F8F023FB6001233B61EF
:10092C0000237B610023BB6107F10C0319460448CB
:10093C0001F006FE00BF2037BD4680BD00380240E6
:10094C000004024080B500AF00F0FFF800F010F892
:10095C00FFF79CFFFFF7B8FFFFF798FF08F014FBB9
:10096C00FFF720FFFFF788FD09F0DCF9FCE700003A
:10097C0080B592B000AF07F1140334220021184661
:10098C0009F0C0FB3B4600221A605A609A60DA609C
:10099C001A611D4B1B6823F4C0531B4A43F40063BC
:1009AC00136002237B6101233B6210237B620223D1
:1009BC00BB630023FB634FF400233B644FF4000341
:1009CC007B6407F11403184603F01EFD0346002B4D
:1009DC0001D000F01BF80F233B6003237B60002346
:1009EC00BB600023FB6000233B613B4601211846A2
:1009FC0004F08AF90346002B01D000F007F800BF81
:100A0C004837BD4680BD00BF0070004080B400AFC9
:100A1C0072B600BFFEE780B483B000AF7860396077
:100A2C0000BF0C37BD4680BC7047000080B485B059
:100A3C0000AF144B5B6A134A43F000435362114BF3
:100A4C005B6A03F00043FB60FB680E4B1B6A0D4AAC
:100A5C0043F0010313620B4B1B6A03F00103BB60F1
:100A6C00BB68084B5B6A074A43F080535362054BE3
:100A7C005B6A03F080537B607B6800BF1437BD4614
:100A8C0080BC70470038024080B400AFFEE780B4F1
:100A9C0000AFFEE780B400AFFEE780B400AFFEE726
:100AAC0080B400AFFEE780B400AF00BFBD4680BC91
:100ABC00704780B400AF00BFBD4680BC704780B5A6
:100ACC0000AF00F095F800BF80BD000080B500AF0E
:100ADC00024801F056FC00BF80BD00BFF0010020B1
:100AEC0080B500AF024802F0AFF800BF80BD00BF78
:100AFC00BC0E002080B400AF00BFBD4680BC704768
:100B0C00FFF7F8FF0B480C490C4A002302E0D458BD
:100B1C00C4500433C4188C42F9D3094A094C00233D
:100B2C0001E013600432A242FBD309F0C7FAFFF7CD
:100B3C0009FF704700000020800100203CA3000842
:100B4C0080010020A8160020FEE780B582B000AF1F
:100B5C000023FB71032001F085F80F2000F00EF844
:100B6C000346002B02D00123FB7101E0FFF75EFF6F
:100B7C00FB7918460837BD4680BD000080B584B0AF
:100B8C0000AF78600023FB73164B1B68002B22D040
:100B9C00154B1A68134B1B684FF47A71B1FBF3F3C6
:100BAC00B2FBF3F3184601F0C1F80346002B0FD14A
:100BBC007B680F2B09D8002279684FF0FF3001F0C9
:100BCC0071F80A4A7B68136007E00123FB7304E0A9
:100BDC000123FB7301E00123FB73FB7B18461037E9
:100BEC00BD4680BD0800002000000020040000204D
:100BFC0080B400AF054B1A68054B1B681344034ABD
:100C0C00136000BFBD4680BC704700BF4802002087
:100C1C000800002080B400AF024B1B681846BD468C
:100C2C0080BC70474802002080B584B000AF78606B
:100C3C00FFF7F0FFB8607B68FB60FB68B3F1FF3F28
:100C4C0004D0094B1B68FA681344FB6000BFFFF724
:100C5C00E1FF0246BB68D31AFA689A42F7D800BF84
:100C6C0000BF1037BD4680BD0800002080B58EB097
:100C7C0000AF7860002387F8373000233B630023F4
:100C8C00FB627B68002B01D101238AE27B681B6825
:100C9C00924A934204D040F2B3119148FFF7BBFE45
:100CAC007B685B68002B0ED07B685B68B3F5803F7C
:100CBC0009D07B685B68B3F5003F04D04FF4DA7160
:100CCC008748FFF7A8FE7B689B68002B13D07B68D6
:100CDC009B68B3F1807F0ED07B689B68B3F1007F7B
:100CEC0009D07B689B68B3F1407F04D040F2B5110A
:100CFC007B48FFF790FE7B68DB68002B09D07B6894
:100D0C00DB68B3F5006F04D04FF4DB717448FFF768
:100D1C0082FE7B681B69002B09D07B681B69B3F5CD
:100D2C00807F04D040F2B7116D48FFF774FE7B68EA
:100D3C005B69B3F5806F08D07B685B69002B04D0CE
:100D4C004FF4DC716648FFF766FE7B689B69002BED
:100D5C0020D07B689B69102B1CD07B689B69202B57
:100D6C0018D07B689B69302B14D07B689B69402B17
:100D7C0010D07B689B69502B0CD07B689B69602BD7
:100D8C0008D07B689B69702B04D040F2B911544891
:100D9C00FFF741FE7B68DB69002B13D07B68DB69B6
:100DAC00B3F5003F0ED07B68DB69B3F5803F09D00B
:100DBC007B68DB69B3F5403F04D04FF4DD714848E4
:100DCC00FFF729FE7B681B6A002B04D040F2BB1195
:100DDC004348FFF720FE7B6893F82430002B09D0A2
:100DEC007B6893F82430012B04D04FF4DE713C481F
:100DFC00FFF711FE7B685B6BB3F1007F3ED07B6825
:100E0C005B6BB3F1407F39D07B685B6BB3F1C06F28
:100E1C0034D07B685B6BB3F1E06F2FD07B685B6B7E
:100E2C00B3F1006F2AD07B685B6BB3F1806F25D078
:100E3C007B685B6BB3F1A06F20D07B685B6BB3F10D
:100E4C00106F1BD07B685B6BB3F1206F16D07B6887
:100E5C005B6B002B12D07B685B6BB3F1807F0DD08A
:100E6C007B685B6BB3F1706F08D07B685B6B102B8E
:100E7C0004D040F2BD111A48FFF7CDFD7B6893F802
:100E8C003C30002B09D07B6893F83C30012B04D00C
:100E9C004FF4DF711248FFF7BEFD7B681B69002B16
:100EAC0032D07B689B6A002B03D07B689B6A1B2B20
:100EBC0004D94FF4E1710A48FFF7ADFD7B6893F854
:100ECC002C30002B0ED07B6893F82C30012B09D0E2
:100EDC0040F2C3110248FFF79EFD03E000240140DD
:100EEC0038A100087B6893F82C30002B0CD07B6861
:100EFC001B6B002B03D07B681B6B082B04D94FF4A6
:100F0C00E3719648FFF787FD7B685B6B102B17D05E
:100F1C007B689B6B002B13D07B689B6BB3F1805F62
:100F2C000ED07B689B6BB3F1005F09D07B689B6B29
:100F3C00B3F1405F04D04FF4E6718848FFF76BFDC6
:100F4C007B68DB6C002B15D17B6800221A657B68F3
:100F5C00002283F84820824B1B6A814A43F001032C
:100F6C0013627F4B1B6A03F00103BB60BB6878689C
:100F7C00FFF792FB7B68DB6C03F01003002B40F057
:100F8C000B817B68DB6C23F4885323F0020343F062
:100F9C0002027B68DA64734B5B6823F440327B6833
:100FAC005B68704913434B607B68DA687B685B69EC
:100FBC001A437B6893F83C3019464FF400733B623C
:100FCC003B6A93FAA3F3FB61FB69B3FA83F3DBB2DD
:100FDC0001FA03F31A437B681B6A1A437B6893F884
:100FEC00243019460223BB62BB6A93FAA3F37B62DB
:100FFC007B6AB3FA83F3DBB201FA03F31343FA6AA5
:10100C001343FB627B685B6B102B07D07B685A6BBE
:10101C007B689B6B1343FA6A1343FB627B681B6808
:10102C001B6803F04003402B4FD07B689B69FA6A26
:10103C001343FB627B689A687B68DB6913437A68AD
:10104C001269B2F5807F03D07A681269012A02D145
:10105C004FF4807200E0002213433A6B13433B635E
:10106C007B6893F82C30012B25D17B6893F82430C6
:10107C00002B14D17B681B6B013B4FF46042BA61AF
:10108C00BA6992FAA2F27A617A69B2FA82F2D2B2AF
:10109C00934043F400633A6B13433B630BE07B6870
:1010AC00DB6C43F020027B68DA647B681B6D43F0D9
:1010BC0001027B681A657B681B685A682A4B1340CF
:1010CC007A681268396B0B4353607B681B689A68AB
:1010DC00264B13407A681268F96A0B4393607B685D
:1010EC001B69B3F5807F03D07B681B69012B19D179
:1010FC007B681B681B6B23F0F8717B689B6A013B58
:10110C004FF0F8723A613A6992FAA2F2FA60FA6810
:10111C00B2FA82F2D2B203FA02F27B681B680A437B
:10112C001A6307E07B681B681A6B7B681B6822F0EC
:10113C00F8721A637B681B689A680D4B1340FA6A45
:10114C009A4217D17B6800221A657B68DB6C23F00E
:10115C00030343F001027B68DA6420E038A1000845
:10116C000038024000270140FF16FCFC8DF1FFC047
:10117C00FEFF80BF7B68DB6C23F0120343F0100290
:10118C007B68DA647B681B6D43F001027B681A652F
:10119C00012387F8373002E0012387F8373097F8BE
:1011AC00373018463837BD4680BD00BF80B586B095
:1011BC0000AFF860B9607A600023FB75FB681B68B0
:1011CC00434A934204D040F2DE514248FFF723FCDD
:1011DC00FB6893F84830012B01D1022374E0FB68C3
:1011EC00012283F84820F86800F056FB0346FB7593
:1011FC00FB7D002B67D1FB68DB6C23F4E06323F0F1
:10120C00010343F48072FB68DA64FB681B685B685B
:10121C0003F48063002B07D0FB68DB6C23F4405392
:10122C0043F48052FB68DA64FB68DB6C03F4805394
:10123C00B3F5805F06D1FB681B6D23F00602FB68DB
:10124C001A6502E0FB6800221A65FB68002283F82D
:10125C004820FB685B6C204A9A62FB685B6C1F4AF7
:10126C00DA62FB685B6C1E4A1A63FB681B686FF0E2
:10127C0022021A60FB681B685A68FB681B6842F004
:10128C0080625A60FB681B689A68FB681B6842F4B2
:10129C0080729A60FB68586CFB681B68583319465F
:1012AC00BA687B6800F0C2FFFB681B689B6803F0A0
:1012BC004053002B07D1FB681B689A68FB681B68BE
:1012CC0042F080429A60FB7D18461837BD4680BDBF
:1012DC000024014038A10008DF190008871A000813
:1012EC00A31A000880B584B000AF78600023FB73AC
:1012FC007B681B68294A934204D040F2426128481B
:10130C00FFF789FB7B6893F84830012B01D102234E
:10131C003FE07B68012283F84820786800F018FBD6
:10132C000346FB73FB7B002B2ED17B681B689A68F2
:10133C007B681B6822F480729A607B685B6C93F804
:10134C002130DBB2022B0DD17B685B6C184600F0B0
:10135C00DBFFFB7B002B05D07B68DB6C43F0400292
:10136C007B68DA647B68DB6C23F4885323F001031D
:10137C0043F001027B68DA647B681B685A687B68FF
:10138C001B6822F080625A607B68002283F8482038
:10139C00FB7B18461037BD4680BD00BF00240140C2
:1013AC0038A1000880B483B000AF786000BF0C3760
:1013BC00BD4680BC704780B483B000AF786000BF7E
:1013CC000C37BD4680BC704780B584B000AF7860E8
:1013DC0039600023FB730023BB607B681B68754A74
:1013EC00934204D040F29C717348FFF714FB3B68A6
:1013FC001B68002B6CD03B681B68012B68D03B68CA
:10140C001B68022B64D03B681B68032B60D03B68C5
:10141C001B68042B5CD03B681B68052B58D03B68C1
:10142C001B68062B54D03B681B68072B50D03B68BD
:10143C001B68082B4CD03B681B68092B48D03B68B9
:10144C001B680A2B44D03B681B680B2B40D03B68B5
:10145C001B680C2B3CD03B681B680D2B38D03B68B1
:10146C001B680E2B34D03B681B680F2B30D03B68AD
:10147C001B68102B2CD03B681B68112B28D03B68A9
:10148C001B68122B24D03B681B68132B20D03B68A5
:10149C001B68142B1CD03B681B68152B18D03B68A1
:1014AC001B68162B14D03B681B68172B10D03B689D
:1014BC001B68182B0CD03B681B68192B08D03B6899
:1014CC001B681A2B04D040F29D713B48FFF7A3FA1E
:1014DC003B685B68012B71D03B685B68022B6DD05D
:1014EC003B685B68032B69D03B685B68042B65D059
:1014FC003B685B68052B61D03B685B68062B5DD055
:10150C003B685B68072B59D03B685B68082B55D050
:10151C003B685B68092B51D03B685B680A2B4DD04C
:10152C003B685B680B2B49D03B685B680C2B45D048
:10153C003B685B680D2B41D03B685B680E2B3DD044
:10154C003B685B680F2B39D03B685B68102B35D040
:10155C003B685B68112B31D03B685B68122B2DD03C
:10156C003B685B68132B29D03B685B68142B25D038
:10157C003B685B68152B21D03B685B68162B1DD034
:10158C003B685B68172B19D03B685B68182B15D030
:10159C003B685B68192B11D03B685B681A2B0DD02C
:1015AC003B685B681B2B09D040F29E710248FFF729
:1015BC0032FA03E00024014038A100083B689B6824
:1015CC00002B20D03B689B68012B1CD03B689B6890
:1015DC00022B18D03B689B68032B14D03B689B688C
:1015EC00042B10D03B689B68052B0CD03B689B6888
:1015FC00062B08D03B689B68072B04D040F29F71E8
:10160C00A148FFF708FA7B6893F84830012B01D109
:10161C00022334E17B68012283F848203B685B6835
:10162C00062B1CD87B681B68196C3B685A681346E0
:10163C009B001344053B1F2202FA03F3DB431940C2
:10164C003B6818683B685A6813469B001344053B7B
:10165C0000FA03F27B681B680A431A647EE03B685D
:10166C005B680C2B1CD87B681B68D96B3B685A6871
:10167C0013469B001344233B1F2202FA03F3DB4364
:10168C0019403B6818683B685A6813469B00134422
:10169C00233B00FA03F27B681B680A43DA635DE0C4
:1016AC003B685B68122B1CD87B681B68996B3B688A
:1016BC005A6813469B001344413B1F2202FA03F362
:1016CC00DB4319403B6818683B685A6813469B001B
:1016DC001344413B00FA03F27B681B680A439A638C
:1016EC003CE03B685B68182B1CD87B681B68596B0B
:1016FC003B685A6813469B0013445F3B1F2202FA57
:10170C0003F3DB4319403B6818683B685A6813467F
:10171C009B0013445F3B00FA03F27B681B680A438F
:10172C005A631BE07B681B68196B3B685A6813464D
:10173C009B0013447D3B1F2202FA03F3DB43194049
:10174C003B6818683B685A6813469B0013447D3B02
:10175C0000FA03F27B681B680A431A633B681B6838
:10176C00092B1AD87B681B6859693B681A681346A1
:10177C005B001344072202FA03F3DB4319403B6876
:10178C0098683B681A6813465B00134400FA03F22E
:10179C007B681B680A435A6142E03B681B68132B49
:1017AC001CD87B681B6819693B681A6813465B0078
:1017BC0013441E3B072202FA03F3DB4319403B6838
:1017CC0098683B681A6813465B0013441E3B00FA8A
:1017DC0003F27B681B680A431A6121E03B681B68B3
:1017EC001A2B1CD87B681B68D9683B681A6813468F
:1017FC005B0013443C3B072202FA03F3DB43194022
:10180C003B6898683B681A6813465B0013443C3B82
:10181C0000FA03F27B681B680A43DA6000E000BF41
:10182C003B681B68102B03D03B681B68112B21D124
:10183C00164B5B6803F40003002B1BD1134B5B6846
:10184C00124A43F4000353603B681B68102B11D100
:10185C000F4B1B680F4AA2FB03239A0C13469B00E9
:10186C0013445B00BB6002E0BB68013BBB60BB6820
:10187C00002BF9D17B68002283F84820FB7B1846AB
:10188C001037BD4680BD00BF38A1000800270140BD
:10189C000000002083DE1B4380B584B000AF78606D
:1018AC000023FB600023BB607B681B681B6803F094
:1018BC004003402B43D07B681B689A687B681B688D
:1018CC0042F001029A60204B1B68204AA2FB0323C2
:1018DC009A0C13465B001344BB6002E0BB68013BEF
:1018EC00BB60BB68002BF9D1FFF794F9F8601FE0DF
:1018FC00FFF790F90246FB68D31A022B18D97B68C4
:10190C001B681B6803F04003402B11D07B68DB6C19
:10191C0043F010027B68DA647B681B6D43F00102B4
:10192C007B681A657B68002283F84820012307E056
:10193C007B681B681B6803F04003402BD8D1002345
:10194C0018461037BD4680BD0000002083DE1B43C7
:10195C0080B584B000AF78600023FB607B681B68A7
:10196C001B6803F04003402B2ED17B681B689A68E0
:10197C007B681B6822F001029A60FFF74BF9F86054
:10198C001BE0FFF747F90246FB68D31A022B14D968
:10199C007B681B681B6803F04003402B0DD17B68F0
:1019AC00DB6C43F010027B68DA647B681B6D43F0E0
:1019BC0001027B681A65012307E07B681B681B68C2
:1019CC0003F04003402BDCD0002318461037BD46F3
:1019DC0080BD80B584B000AF78607B685B6AFB60CB
:1019EC00FB68DB6C03F05003002B3DD1FB68DB6C18
:1019FC0043F40072FB68DA64FB681B689B6803F0B5
:101A0C004053002B2CD1FB6893F82430002B27D1AA
:101A1C00FB681B681B6B03F0F873002B06D0FB688C
:101A2C001B689B6803F48063002B19D1FB681B684F
:101A3C005A68FB681B6822F020025A60FB68DB6C5A
:101A4C0023F48072FB68DA64FB68DB6C03F480536C
:101A5C00002B05D1FB68DB6C43F00102FB68DA64F8
:101A6C00F86808F0BFF804E0FB685B6C1B6B7868E7
:101A7C00984700BF1037BD4680BD80B584B000AF1D
:101A8C0078607B685B6AFB60F868FFF78BFC00BFD3
:101A9C001037BD4680BD80B584B000AF78607B68E0
:101AAC005B6AFB60FB68DB6C43F04002FB68DA644A
:101ABC00FB681B6D43F00402FB681A65F868FFF7BE
:101ACC007AFC00BF1037BD4680BD000080B485B0E5
:101ADC0000AF78607B6803F00703FB600C4BDB689E
:101AEC00BB60BA684FF6FF031340BB60FB681A0279
:101AFC00BB68134343F0BF6343F40033BB60044A39
:101B0C00BB68D36000BF1437BD4680BC704700BFB4
:101B1C0000ED00E080B400AF044BDB681B0A03F05F
:101B2C0007031846BD4680BC704700BF00ED00E0BF
:101B3C0080B483B000AF0346FB7197F90730002BDC
:101B4C000BDBFB7903F01F02064997F907305B09A1
:101B5C00012000FA02F241F8232000BF0C37BD46E9
:101B6C0080BC704700E100E080B483B000AF034656
:101B7C003960FB7197F90730002B0ADB3B68DAB24E
:101B8C000C4997F907301201D2B20B4483F80023A9
:101B9C000AE03B68DAB20849FB7903F00F03043B17
:101BAC001201D2B20B441A7600BF0C37BD4680BC72
:101BBC00704700BF00E100E000ED00E080B489B0A8
:101BCC0000AFF860B9607A60FB6803F00703FB6153
:101BDC00FB69C3F10703042B28BF0423BB61FB691A
:101BEC000433062B02D9FB69033B00E000237B6125
:101BFC004FF0FF32BB6902FA03F3DA43BB681A40B9
:101C0C007B699A404FF0FF317B6901FA03F3D943AA
:101C1C007B680B40134318462437BD4680BC704785
:101C2C0080B582B000AF78607B68013BB3F1807FF8
:101C3C0001D301230FE00A4A7B68013B53600F215B
:101C4C004FF0FF30FFF790FF054B00229A60044BDA
:101C5C0007221A60002318460837BD4680BD00BF16
:101C6C0010E000E080B582B000AF78607B68072B95
:101C7C000FD07B68062B0CD07B68052B09D07B68BA
:101C8C00042B06D07B68032B03D0AB210448FEF752
:101C9C00C2FE7868FFF71AFF00BF0837BD4680BD4B
:101CAC0070A1000880B586B000AF0346B9607A60B9
:101CBC00FB7300237B617B680F2B03D9C3210E4878
:101CCC00FEF7A9FEBB680F2B03D9C4210A48FEF707
:101CDC00A2FEFFF71FFF78617A68B9687869FFF791
:101CEC006DFF024697F90F3011461846FFF73CFF7F
:101CFC0000BF1837BD4680BD70A1000880B582B00A
:101D0C0000AF0346FB7197F90730002B03DAD7219C
:101D1C000548FEF780FE97F907301846FFF708FFD5
:101D2C0000BF0837BD4680BD70A1000880B582B0E9
:101D3C0000AF78607868FFF773FF034618460837E2
:101D4C00BD4680BD80B582B000AF78607B68002B4B
:101D5C0001D101231EE07B681B68104A934204D01A
:101D6C004FF491710E48FEF756FE7B681B79DBB27F
:101D7C00002B05D17B6800225A717868FEF746FD6E
:101D8C007B6802221A717B6800221A617B6801222F
:101D9C001A71002318460837BD4680BD00740040F8
:101DAC00ACA1000880B582B000AF786039607B6868
:101DBC00002B01D1012351E03B68002B07D03B687D
:101DCC00102B04D040F2C7112648FEF724FE7B6886
:101DDC005B79012B01D1022340E07B6801225A710F
:101DEC007B6802221A717B681B6819683B6803F0D8
:101DFC00100301229A407B681B680A431A603B68F7
:101E0C00002B0FD17B681B681B6803F03C033C2B39
:101E1C001DD17B681B685A687B681B6842F0010205
:101E2C005A6014E07B681B681B6803F470123B68F3
:101E3C0003F010033C2101FA03F39A4207D17B68AB
:101E4C001B685A687B681B6842F002025A607B6808
:101E5C0001221A717B6800225A7100231846083738
:101E6C00BD4680BDACA1000880B586B000AFF8605F
:101E7C00B9607A603B6000237B61FB68002B01D169
:101E8C00012338E0BB68002B07D0BB68102B04D0B3
:101E9C0040F232311A48FEF7BEFD7B68002B0AD0A7
:101EAC007B68042B07D07B68082B04D040F23331BD
:101EBC001348FEF7B0FD3B684FF6F072934204D91D
:101ECC004FF44D710E48FEF7A6FDFB681B687B6155
:101EDC00BB68002B05D17A697B68134408337B619E
:101EEC0004E07A697B68134414337B617B691A467E
:101EFC003B681360002318461837BD4680BD00BFF1
:101F0C00ACA1000880B588B000AFF860B9607A6009
:101F1C000023FB77FB68002B02D0BB68002B01D1A0
:101F2C0001237FE0BB681B68002B20D0BB681B68BB
:101F3C00042B1CD0BB681B68142B18D0BB681B6807
:101F4C001C2B14D0BB681B68242B10D0BB681B68DF
:101F5C002C2B0CD0BB681B68342B08D0BB681B68BF
:101F6C003C2B04D040F2DA313048FEF754FDBB680C
:101F7C005B68002B08D0BB685B68022B04D040F276
:101F8C00DB312A48FEF747FD7B68002B07D07B68C6
:101F9C00102B04D04FF477712448FEF73CFDFB68FE
:101FAC005B79012B01D102233CE0FB6801225A71C1
:101FBC00FB6802221A71FB681B681B68BB617B689B
:101FCC0003F0100340F6FE7202FA03F3DB43BA6926
:101FDC001340BB61BB681A68BB685B6813437B61C9
:101FEC007B6803F010037A6902FA03F3BA691343AE
:101FFC00BB61FB681B68BA691A60FB681B681968CF
:10200C007B6803F01003C02202FA03F3DA43FB6887
:10201C001B680A401A60FB6801221A71FB680022D7
:10202C005A71FB7F18462037BD4680BDACA1000815
:10203C0080B584B000AF78607B68002B01D10123A0
:10204C00DAE07B681B686E4A934221D07B681B6880
:10205C006C4A93421CD07B681B686B4A934217D026
:10206C007B681B68694A934212D07B681B68684A7C
:10207C0093420DD07B681B68664A934208D07B68FC
:10208C001B68654A934203D09B216448FEF7C3FC4E
:10209C007B685B68002B0CD07B685B68102B08D0CE
:1020AC007B685B68B3F5804F03D09C215B48FEF7DF
:1020BC00B2FC7B689B68402B07D07B689B68002B2D
:1020CC0003D09D215548FEF7A6FC7B68DB68802B6E
:1020DC0007D07B68DB68002B03D09E214F48FEF7AE
:1020EC009AFC7B681B69002B0DD07B681B69B3F5D0
:1020FC00807F08D07B681B69B3F5007F03D09F21DC
:10210C004648FEF788FC7B685B69002B0DD07B682A
:10211C005B69B3F5806F08D07B685B69B3F5006FC2
:10212C0003D0A0213D48FEF776FC7B689B69002B11
:10213C0007D07B689B69202B03D0A1213748FEF781
:10214C006AFC7B68DB69002B12D07B68DB69B3F51A
:10215C00805F0DD07B68DB69B3F5005F08D07B68CE
:10216C00DB69B3F5405F03D0A2212C48FEF753FC8A
:10217C007B681B681A462A4B13442A4AA2FB03238A
:10218C001B099A007B681A647B68274ADA637B68B0
:10219C00022283F821207B681B681B68FB60FB68AC
:1021AC0023F4FF4323F07003FB607B685A687B6861
:1021BC009B681A437B68DB681A437B681B691A436C
:1021CC007B685B691A437B689B691A437B68DB6994
:1021DC001343FA681343FB607B681B68FA681A6048
:1021EC007B6800229A637B68012283F821207B683C
:1021FC00002283F82020002318461037BD4680BDEE
:10220C00086002401C6002403060024044600240A2
:10221C00586002406C60024080600240E4A10008FB
:10222C00F89FFDBFCDCCCCCC0060024080B586B011
:10223C0000AFF860B9607A603B600023FB753B68C7
:10224C00002B03D03B68B3F5803F04D340F26B11F5
:10225C002C48FEF7E0FBFB6893F82030012B01D1F2
:10226C0002234BE0FB68012283F82020FB6893F8E3
:10227C002130DBB2012B3AD1FB68022283F82120FA
:10228C00FB6800229A63FB681B681A68FB681B6872
:10229C0022F001021A603B687A68B968F86800F0AD
:1022AC001FF9FB68DB6A002B08D0FB681B681A68F7
:1022BC00FB681B6842F00E021A600FE0FB681B689B
:1022CC001A68FB681B6822F004021A60FB681B6822
:1022DC001A68FB681B6842F00A021A60FB681B68EC
:1022EC001A68FB681B6842F001021A6005E0FB6883
:1022FC00002283F820200223FB75FB7D184618373B
:10230C00BD4680BDE4A1000880B485B000AF786004
:10231C000023FB737B6893F82130DBB2022B08D0CF
:10232C007B6804229A637B68002283F820200123B7
:10233C0022E07B681B681A687B681B6822F00E021F
:10234C001A607B681B681A687B681B6822F00102A4
:10235C001A607B681B6C03F01C027B68DB6B012131
:10236C0001FA02F25A607B68012283F821207B6813
:10237C00002283F82020FB7B18461437BD4680BC16
:10238C00704780B584B000AF78607B68DB6B1B68EE
:10239C00FB607B681B681B68BB607B681B6C03F075
:1023AC001C0304229A40FB681340002B26D0BB6808
:1023BC0003F00403002B21D07B681B681B6803F01F
:1023CC002003002B07D17B681B681A687B681B688D
:1023DC0022F004021A607B681B6C03F01C027B6801
:1023EC00DB6B042101FA02F25A607B68DB6A002B7A
:1023FC0071D07B68DB6A786898476CE07B681B6CF3
:10240C0003F01C0302229A40FB681340002B2ED0D1
:10241C00BB6803F00203002B29D07B681B681B6888
:10242C0003F02003002B0BD17B681B681A687B68B8
:10243C001B6822F00A021A607B68012283F82120B3
:10244C007B681B6C03F01C027B68DB6B022101FABE
:10245C0002F25A607B68002283F820207B689B6A1A
:10246C00002B38D07B689B6A7868984733E07B6890
:10247C001B6C03F01C0308229A40FB681340002BD2
:10248C002AD0BB6803F00803002B25D07B681B689F
:10249C001A687B681B6822F00E021A607B681B6C42
:1024AC0003F01C027B68DB6B012101FA02F25A601B
:1024BC007B6801229A637B68012283F821207B6868
:1024CC00002283F820207B681B6B002B04D07B68D8
:1024DC001B6B7868984700BF00BF1037BD4680BDA6
:1024EC0080B485B000AFF860B9607A603B60FB687F
:1024FC001B6C03F01C02FB68DB6B012101FA02F27E
:10250C005A60FB681B683A685A60FB685B68102B62
:10251C0008D1FB681B687A689A60FB681B68BA680C
:10252C00DA6007E0FB681B68BA689A60FB681B6896
:10253C007A68DA6000BF1437BD4680BC7047000073
:10254C0080B586B000AF7860396000237B610023D2
:10255C00FB6000233B617B68384A934217D07B6851
:10256C00374A934213D07B68364A93420FD07B682C
:10257C00354A93420BD07B68344A934207D07B6830
:10258C00334A934203D0B1213248FEF744FA3B68F8
:10259C001B689BB2002B05D03B681B681B0C1B04F3
:1025AC00002B03D0B2212B48FEF735FA3B685B6851
:1025BC00002B00F000823B685B68012B00F0FB8174
:1025CC003B685B68112B00F0F6813B685B68022B63
:1025DC0000F0F1813B685B68122B00F0EC813B68EA
:1025EC005B68B3F5881F00F0E6813B685B68B3F568
:1025FC00041F00F0E0813B685B68B3F5441F00F0FA
:10260C00DA813B685B68B3F5901F00F0D4813B68BE
:10261C005B68B3F5081F00F0CE813B685B68B3F5CF
:10262C00481F00F0C8813B685B68032B00F0C38136
:10263C00B3210848FEF7EFF9BDE100BF00000240EE
:10264C000004024000080240000C0240001002404E
:10265C00001402401CA200083B681A6801217B6927
:10266C0001FA03F31340FB60FB68002B00F0A08120
:10267C003B685B6803F00303012B05D03B685B6888
:10268C0003F00303022B44D13B68DB68002B0FD013
:10269C003B68DB68012B0BD03B68DB68022B07D057
:1026AC003B68DB68032B03D0C3218648FEF7B3F9E4
:1026BC007B689B683B617B695B00032202FA03F336
:1026CC00DB433A6913403B613B68DA687B695B002A
:1026DC0002FA03F33A6913433B617B683A699A60E7
:1026EC007B685B683B6101227B6902FA03F3DB4385
:1026FC003A6913403B613B685B681B0903F00102BC
:10270C007B6902FA03F33A6913433B617B683A69CC
:10271C005A603B685B6803F00303032B27D03B68CC
:10272C009B68002B0BD03B689B68012B07D03B6848
:10273C009B68022B03D0D4216248FEF76CF97B68AE
:10274C00DB683B617B695B00032202FA03F3DB432A
:10275C003A6913403B613B689A687B695B0002FAFB
:10276C0003F33A6913433B617B683A69DA603B686F
:10277C005B6803F00303022B47D17B68524A9342F8
:10278C0017D07B68514A934213D07B68504A9342CE
:10279C000FD07B684F4A93420BD07B684E4A9342D2
:1027AC0007D07B684D4A934203D0E1214548FEF7A0
:1027BC0032F93B681B690F2B03D9E2214148FEF724
:1027CC002AF97B69DA087B68083253F822303B61BE
:1027DC007B6903F007039B000F2202FA03F3DB4330
:1027EC003A6913403B613B681A697B6903F0070344
:1027FC009B0002FA03F33A6913433B617B69DA08E5
:10280C007B680832396943F822107B681B683B618E
:10281C007B695B00032202FA03F3DB433A69134042
:10282C003B613B685B6803F003027B695B0002FA67
:10283C0003F33A6913433B617B683A691A603B685E
:10284C005B6803F44033002B00F0B280244B1B6A0E
:10285C00234A43F001031362214B1B6A03F001036B
:10286C00BB60BB681F4A7B699B08023352F823305C
:10287C003B617B6903F003039B000F2202FA03F315
:10288C00DB433A6913403B617B680F4A93422BD080
:10289C007B680E4A934213D07B680D4A93420DD04D
:1028AC007B680C4A934207D07B680B4A934201D158
:1028BC0004231AE0052318E0032316E0022314E096
:1028CC00012312E01CA20008000002400004024098
:1028DC0000080240000C02400010024000140240AC
:1028EC00003802400000014000237A6902F0030224
:1028FC00920093403A6913433B6135497B699B08CD
:10290C0002333A6941F82320324B9B683B61FB68E8
:10291C00DB433A6913403B613B685B6803F480130B
:10292C00002B03D03A69FB6813433B61294A3B698E
:10293C009360284BDB683B61FB68DB433A691340CF
:10294C003B613B685B6803F40013002B03D03A69CE
:10295C00FB6813433B611F4A3B69D3601D4B5B68AB
:10296C003B61FB68DB433A6913403B613B685B6846
:10297C0003F40033002B03D03A69FB6813433B612B
:10298C00144A3B695360134B1B683B61FB68DB4388
:10299C003A6913403B613B685B6803F48033002B5E
:1029AC0003D03A69FB6813433B610A4A3B691360E5
:1029BC007B6901337B613B681A687B6922FA03F3FC
:1029CC00002B7FF449AE00BF00BF1837BD4680BD59
:1029DC00000001400004014080B582B000AF786077
:1029EC000B467B8013467B707B88002B04D07B8846
:1029FC001B0C1B04002B04D04FF4D0710E48FEF7B7
:102A0C000AF87B78002B07D07B78012B04D040F29E
:102A1C00A1110948FDF7FFFF7B78002B03D07A88C2
:102A2C007B689A6103E07B881A047B689A6100BF1B
:102A3C000837BD4680BD00BF1CA20008F0B58BB0A6
:102A4C0006AF78607B68002B01D10123CDE07B6859
:102A5C001B68684A934203D087216748FDF7DBFF68
:102A6C007B6893F8A932DBB2002B06D17B6800227D
:102A7C0083F8A822786806F0A9FC7B68032283F807
:102A8C00A9227B681B68184602F030FC0023FB73FC
:102A9C0040E0FB7B79685A1C13469B001344DB0017
:102AAC000B44013301221A70FB7B79685A1C1346C4
:102ABC009B001344DB000B44FA7B1A70FB7B796898
:102ACC005A1C13469B001344DB000B4403330022B7
:102ADC001A70FA7B796813469B001344DB000B4495
:102AEC00383300221A60FA7B796813469B00134432
:102AFC00DB000B443C3300221A60FA7B79681346E6
:102B0C009B001344DB000B44403300221A60FB7B18
:102B1C000133FB73FA7B7B685B689A42B9D3002361
:102B2C00FB7344E0FA7B796813469B001344DB008B
:102B3C000B4403F2691300221A70FA7B796813466E
:102B4C009B001344DB000B4403F5B473FA7B1A703F
:102B5C00FA7B796813469B001344DB000B4403F2A9
:102B6C006B1300221A70FA7B796813469B0013448E
:102B7C00DB000B4403F5BC7300221A60FA7B796806
:102B8C0013469B001344DB000B4403F5BE73002279
:102B9C001A60FA7B796813469B001344DB000B44E4
:102BAC0003F5C07300221A60FB7B0133FB73FA7BC5
:102BBC007B685B689A42B5D37B681B683B607E6818
:102BCC006D4606F110040FCC0FC523682B60331D26
:102BDC000ECB386802F0A4FB7B68002283F824201B
:102BEC007B68012283F8A922002318461437BD46BE
:102BFC00F0BD00BF005C004058A2000880B582B058
:102C0C0000AF78607B6893F8A832012B01D10223C6
:102C1C0016E07B68012283F8A8227B681B681846A3
:102C2C0002F04EFB0121786806F0B2FB7B681B6852
:102C3C00184604F002FE7B68002283F8A8220023C9
:102C4C0018460837BD4680BD80B584B000AF7860AB
:102C5C007B681B68184604F0FAFDF860FB6803F407
:102C6C000043002B03D0786800F0B1FABDE0FB689C
:102C7C0003F48063002B13D07B681B68B3F84430DB
:102C8C009AB27B681B6822F4806292B2A3F844204B
:102C9C00786806F016FC0021786800F0A9F8A4E02A
:102CAC00FB6803F48043002B0CD07B681B68B3F8E3
:102CBC0044309AB27B681B6822F4804292B2A3F82B
:102CCC00442092E0FB6803F40053002B0CD07B688B
:102CDC001B68B3F844309AB27B681B6822F400522C
:102CEC0092B2A3F8442080E0FB6803F48053002BDD
:102CFC0027D07B681B68B3F840309AB27B681B689E
:102D0C0022F0040292B2A3F840207B681B68B3F84F
:102D1C0040309AB27B681B6822F0080292B2A3F88A
:102D2C004020786806F006FC7B681B68B3F84430DA
:102D3C009AB27B681B6822F4805292B2A3F84420AA
:102D4C0053E0FB6803F40063002B27D07B681B68FF
:102D5C00B3F840309AB27B681B6842F0080292B21A
:102D6C00A3F840207B681B68B3F844309AB27B68A8
:102D7C001B6822F4006292B2A3F844207B681B68A3
:102D8C00B3F840309AB27B681B6842F0040292B2EE
:102D9C00A3F84020786806F0B3FB26E0FB6803F448
:102DAC000073002B0FD07B681B68B3F844309AB2C9
:102DBC007B681B6822F4007292B2A3F844207868F6
:102DCC0006F071FB11E0FB6803F48073002B0CD050
:102DDC007B681B68B3F844309AB27B681B6822F49A
:102DEC00807292B2A3F8442000BF1037BD4680BD5C
:102DFC0080B582B000AF78600B46FB707B6893F8AF
:102E0C00A832012B01D1022313E07B68012283F845
:102E1C00A8227B68FA7883F824207B681B68FA78F0
:102E2C001146184604F0F6FC7B68002283F8A822B1
:102E3C00002318460837BD4680BD80B584B000AF6E
:102E4C007860084611461A460346FB700B463B80D9
:102E5C001346BB700023FB7297F90330002B0EDA7C
:102E6C00FB7803F007035A1C13469B001344DB004A
:102E7C007A681344FB60FB6801225A700EE0FB7801
:102E8C0003F0070213469B001344DB0003F5B473F5
:102E9C007A681344FB60FB6800225A70FB7803F0DD
:102EAC000703DAB2FB681A703A88FB681A61FB6890
:102EBC00BA78DA70BB78022B02D1FB6800221A7147
:102ECC007B6893F8A832012B01D102230EE07B68BA
:102EDC00012283F8A8227B681B68F968184602F067
:102EEC003FFA7B68002283F8A822FB7A1846103739
:102EFC00BD4680BD80B584B000AF78600B46FB70DA
:102F0C0097F90330002B0EDAFB7803F007035A1CF9
:102F1C0013469B001344DB007A681344FB60FB6888
:102F2C0001225A700EE0FB7803F0070213469B0057
:102F3C001344DB0003F5B4737A681344FB60FB683D
:102F4C0000225A70FB7803F00703DAB2FB681A70A0
:102F5C007B6893F8A832012B01D102230EE07B6829
:102F6C00012283F8A8227B681B68F968184602F0D6
:102F7C00B7FD7B68002283F8A8220023184610377F
:102F8C00BD4680BD80B586B000AFF8607A603B600E
:102F9C000B46FB72FB7A03F0070213469B001344AB
:102FAC00DB0003F5B473FA6813447B617B697A68C0
:102FBC005A617B693A689A617B690022DA617B69A4
:102FCC0000225A70FB7A03F00703DAB27B691A709D
:102FDC00FB681B687969184602F06EFF00231846DF
:102FEC001837BD4680BD80B483B000AF78600B4607
:102FFC00FB70FB7803F00702796813469B001344BF
:10300C00DB000B4403F5C2731B6818460C37BD4636
:10301C0080BC704780B586B000AFF8607A603B60CA
:10302C000B46FB72FB7A03F007035A1C13469B00FA
:10303C001344DB00FA6813447B617B697A685A613C
:10304C007B693A689A617B69012283F824207B6949
:10305C003A681A627B690022DA617B6901225A7034
:10306C00FB7A03F00703DAB27B691A70FB681B6802
:10307C007969184602F020FF002318461837BD4620
:10308C0080BD80B584B000AF78600B46FB70FB78D8
:10309C0003F007027B685B689A4201D901233EE08A
:1030AC0097F90330002B0EDAFB7803F007035A1C58
:1030BC0013469B001344DB007A681344FB60FB68E7
:1030CC0001225A700CE0FA7813469B001344DB0083
:1030DC0003F5B4737A681344FB60FB6800225A70E2
:1030EC00FB6801229A70FB7803F00703DAB2FB68E5
:1030FC001A707B6893F8A832012B01D102230EE0E1
:10310C007B68012283F8A8227B681B68F968184643
:10311C0004F083FA7B68002283F8A8220023184667
:10312C001037BD4680BD80B584B000AF78600B46CB
:10313C00FB70FB7803F00F027B685B689A4201D945
:10314C00012340E097F90330002B0EDAFB7803F0F3
:10315C0007035A1C13469B001344DB007A68134484
:10316C00FB60FB6801225A700EE0FB7803F007024B
:10317C0013469B001344DB0003F5B4737A681344C5
:10318C00FB60FB6800225A70FB6800229A70FB7887
:10319C0003F00703DAB2FB681A707B6893F8A83265
:1031AC00012B01D102230EE07B68012283F8A822B7
:1031BC007B681B68F968184604F07FFA7B6800226C
:1031CC0083F8A822002318461037BD4680BD80B571
:1031DC0096B000AF7860BFE37B681B68B3F84430EF
:1031EC00A7F84E30B7F84E30DBB203F00F0387F878
:1031FC004D3097F84D30002B40F07981B7F84E30B8
:10320C0003F01003002B52D17B681B681B889BB208
:10321C0023F4E14323F07003FB817B681A68FB897C
:10322C006FEA43436FEA53439BB213807B682833A6
:10323C007B657B681B68B3F850309BB21A467B6D7C
:10324C001B78DB00134402335B007A68126813446A
:10325C0003F580631B88C3F309027B6DDA617B6D18
:10326C005A697B6DDB691A447B6D5A610021786861
:10327C0006F0FFF87B6893F82430DBB2002B00F0EB
:10328C006B837B6D9B69002B40F066837B6893F8A6
:10329C002430DBB263F07F03DAB27B681B6892B236
:1032AC00A3F84C207B68002283F8242054E37B682D
:1032BC0003F5B4737B657B681B681B88A7F84A30E1
:1032CC00B7F84A3003F40063002B34D07B681B68DA
:1032DC00B3F850309BB21A467B6D1B78DB0013445D
:1032EC0006335B007A681268134403F580631B880D
:1032FC00C3F309027B6DDA617B6818687B6803F5A0
:10330C002C717B6DDA887B6DDB699BB204F0F3FA70
:10331C007B681B681B889AB240F68F7313403B8204
:10332C007B681B683A8A42F0800292B21A807868F5
:10333C0006F072F810E3B7F94A30002B80F20C83D8
:10334C007B681B681B889AB240F68F731340FB8313
:10335C007B681B68FA8B42F0800292B21A807B6801
:10336C001B68B3F850309BB21A467B6D1B78DB00A0
:10337C00134406335B007A681268134403F58063C8
:10338C001B88C3F309027B6DDA617B6DDB69002B53
:10339C0019D07B6D5B69002B15D07B6818687B6D31
:1033AC0059697B6DDA887B6DDB699BB204F0A3FAFB
:1033BC007B6D5A697B6DDB691A447B6D5A61002108
:1033CC00786806F03BF87B681B681B88A7F84A30C6
:1033DC00B7F84A3003F40063002B40F0BD82B7F815
:1033EC004A3003F44053B3F5405F00F0B5827B687C
:1033FC001B68BB617B681B68B3F850309BB21A46E4
:10340C00BB691344BB61BB6903F20C437B617B69F1
:10341C001B889BB2C3F309039AB27B691A807B6D3C
:10342C001B693E2B1DD97B6D1B695B097B647B6D16
:10343C001B6903F01F03002B02D17B6C013B7B64E7
:10344C007B691B889AB27B6C9BB29B029BB2134329
:10345C009BB26FEA43436FEA53439AB27B691A807B
:10346C0026E07B6D1B69002B0AD17B691B889BB204
:10347C006FEA43436FEA53439AB27B691A8017E0B1
:10348C007B6D1B695B087B647B6D1B6903F001031F
:10349C00002B02D07B6C01337B647B691B889AB256
:1034AC007B6C9BB29B029BB213439AB27B691A80D2
:1034BC007B681B681B889BB223F4804323F070034A
:1034CC007B827B8A83F480537B827B8A83F40053D8
:1034DC007B827B681A687B8A43F07F4343F47F03CB
:1034EC0043F4004343F080039BB2138034E27B68C7
:1034FC001B681A4697F84D309B0013441B88A7F89D
:10350C004A30B7F94A30002B80F2FC807B681B688C
:10351C001A4697F84D309B0013441B889AB240F61C
:10352C008F731340A7F848307B681B681A4697F8CE
:10353C004D309B001344B7F8482042F0800292B201
:10354C001A8097F84D2013469B001344DB0003F5BB
:10355C00B4737A6813447B657B6D1B7B002B25D180
:10356C007B681B68B3F850309BB21A467B6D1B7896
:10357C00DB00134406335B007A681268134403F5CE
:10358C0080631B88C3F30903A7F85030B7F8503099
:10359C00002B00F092807B6818687B6D59697B6DFD
:1035AC00DA88B7F8503004F0A6F986E07B6DDB784A
:1035BC00022B0AD1B7F84A301A46796D786800F0B8
:1035CC00D9F90346A7F8503077E07B681B681A4698
:1035DC007B6D1B789B0013441B889BB223F4E04348
:1035EC0023F07003A7F852307B681B681A467B6D7A
:1035FC001B789B001A44B7F8523043F07F4343F4D6
:10360C007F0343F4004343F0C0039BB213807B68F9
:10361C001B681A467B6D1B789B0013441B889BB25E
:10362C0003F48043002B24D07B681B68B3F8503024
:10363C009BB21A467B6D1B78DB00134402335B0094
:10364C007A681268134403F580631B88C3F309037B
:10365C00A7F85030B7F85030002B2ED07B68186884
:10366C007B6D59697B6D1A89B7F8503004F043F9BA
:10367C0023E07B681B68B3F850309BB21A467B6D15
:10368C001B78DB00134406335B007A681268134422
:10369C0003F580631B88C3F30903A7F85030B7F810
:1036AC005030002B09D07B6818687B6D59697B6D95
:1036BC005A89B7F8503004F01EF97B6DDA69B7F807
:1036CC0050301A447B6DDA617B6D5A69B7F8503013
:1036DC001A447B6D5A617B6D9B69002B05D0B7F842
:1036EC0050207B6D1B699A4206D27B6D1B78194664
:1036FC00786805F0A3FE05E07B681B68796D1846B9
:10370C0002F0DAFBB7F84A3003F08003002B00F02C
:10371C00238197F84D305A1C13469B001344DB0051
:10372C007A6813447B657B681B681A4697F84D30A2
:10373C009B0013441B889BB223F4E14323F07003DA
:10374C00A7F842307B681B681A4697F84D309B00EF
:10375C001A44B7F842306FEA43436FEA53439BB2C3
:10376C0013807B6DDB78012B40F0A2807B6D0022F7
:10377C009A617B6D1B7B002B00F09380B7F84A306D
:10378C0003F04003002B46D07B6D5B78002B26D1D9
:10379C007B681B687B627B681B68B3F850309BB2FC
:1037AC001A467B6A13447B627B6D1B781A017B6A19
:1037BC00134403F204433B623B6A1B889BB2C3F382
:1037CC0009039AB23B6A1A803B6A1B889BB26FEA68
:1037DC0043436FEA53439AB23B6A1A8061E07B6DB4
:1037EC005B78012B5DD17B681B68FB627B681B6877
:1037FC00B3F850309BB21A46FB6A1344FB627B6DE4
:10380C001B781A01FB6A134403F20443BB62BB6AC4
:10381C0000221A8045E07B681B68FB637B6D5B783C
:10382C00002B26D17B681B687B637B681B68B3F815
:10383C0050309BB21A467B6B13447B637B6D1B78B9
:10384C001A017B6B134403F20C433B633B6B1B88E9
:10385C009BB2C3F309039AB23B6B1A803B6B1B8878
:10386C009BB26FEA43436FEA53439AB23B6B1A80A5
:10387C0017E07B6D5B78012B13D17B681B68B3F869
:10388C0050309BB21A46FB6B1344FB637B6D1B7869
:10389C001A01FB6B134403F20C43BB63BB6B00229A
:1038AC001A807B6D1B781946786805F0E2FD53E0B1
:1038BC00B7F84A3003F48073002B46D17B681B6841
:1038CC00B3F850309BB21A467B6D1B78DB00134467
:1038DC0002335B007A681268134403F580631B881B
:1038EC00C3F30903A7F840307B6D9A69B7F84030F1
:1038FC009A4207D97B6D9A69B7F84030D21A7B6D22
:10390C009A6102E07B6D00229A617B6D9B69002BB2
:10391C0006D17B6D1B781946786805F0AAFD1BE073
:10392C007B6D5A69B7F840301A447B6D5A617B6DD8
:10393C00DA69B7F840301A447B6DDA617B681B6832
:10394C00796D184602F0B8FA06E0B7F84A301A4614
:10395C00796D786800F01BF97B681B68B3F844300C
:10396C009BB21BB2002BFFF637AC0023184658371E
:10397C00BD4680BD80B588B000AFF860B960134615
:10398C00FB80FB8803F48043002B7ED0FB681B6814
:10399C00B3F850309BB21A46BB681B78DB0013445B
:1039AC0002335B00FA681268134403F580631B88CA
:1039BC00C3F309037B83BB689A697B8B9A4206D35A
:1039CC00BB689A697B8BD21ABB689A6102E0BB68B0
:1039DC0000229A61BB689B69002B23D1FB681B6892
:1039EC001A46BB681B789B0013441B889BB223F4BC
:1039FC00804323F070033B833B8B83F400533B8366
:103A0C00FB681B681A46BB681B789B001A443B8BEF
:103A1C0043F07F4343F47F0343F4004343F08003BC
:103A2C009BB21380FB8803F04003002B1FD0FB6874
:103A3C001B681A46BB681B789B0013441B889BB2FF
:103A4C0023F4E04323F07003FB82FB681B681A46E7
:103A5C00BB681B789B001A44FB8A43F07F4343F4FA
:103A6C007F0343F4004343F0C0039BB213807B8B72
:103A7C00002B00F08780FB681868BB685969BB682D
:103A8C001A897B8B03F037FF7CE0FB681B68B3F86B
:103A9C0050309BB21A46BB681B78DB0013440633CC
:103AAC005B00FA681268134403F580631B88C3F348
:103ABC0009037B83BB689A697B8B9A4206D3BB68EC
:103ACC009A697B8BD21ABB689A6102E0BB680022B0
:103ADC009A61BB689B69002B23D1FB681B681A4653
:103AEC00BB681B789B0013441B889BB223F4804358
:103AFC0023F07003FB83FB8B83F40053FB83FB6885
:103B0C001B681A46BB681B789B001A44FB8B43F05E
:103B1C007F4343F47F0343F4004343F080039BB2A1
:103B2C001380FB8803F04003002B1FD1FB681B683C
:103B3C001A46BB681B789B0013441B889BB223F46A
:103B4C00E04323F07003BB83FB681B681A46BB6819
:103B5C001B789B001A44BB8B43F07F4343F47F03D9
:103B6C0043F4004343F0C0039BB213807B8B002BC8
:103B7C0008D0FB681868BB685969BB685A897B8B8D
:103B8C0003F0B9FE7B8B18462037BD4680BD80B54F
:103B9C00A4B000AFF860B9601346FB80FB8803F05B
:103BAC004003002B00F0DD81FB681B68B3F850303C
:103BBC009BB21A46BB681B78DB00134402335B00D4
:103BCC00FA681268134403F580631B88C3F3090376
:103BDC00A7F88630BB689A69B7F886309A4207D93D
:103BEC00BB689A69B7F88630D21ABB689A6102E052
:103BFC00BB6800229A61BB689B69002B40F0B980BE
:103C0C00BB685B78002B26D1FB681B68FB62FB68EA
:103C1C001B68B3F850309BB21A46FB6A1344FB6224
:103C2C00BB681B781A01FB6A134403F20443BB62A2
:103C3C00BB6A1B889BB2C3F309039AB2BB6A1A8096
:103C4C00BB6A1B889BB26FEA43436FEA53439AB239
:103C5C00BB6A1A801AE0BB685B78012B16D1FB6833
:103C6C001B687B63FB681B68B3F850309BB21A4629
:103C7C007B6B13447B63BB681B781A017B6B13440F
:103C8C0003F204433B633B6B00221A80FB681B6806
:103C9C007B62BB685B78002B26D1FB681B68FB61E1
:103CAC00FB681B68B3F850309BB21A46FB6913448F
:103CBC00FB61BB681B781A01FB69134403F20C43CC
:103CCC00BB61BB691B889BB2C3F309039AB2BB6986
:103CDC001A80BB691B889BB26FEA43436FEA53435C
:103CEC009AB2BB691A8017E0BB685B78012B13D1C1
:103CFC00FB681B68B3F850309BB21A467B6A1344BE
:103D0C007B62BB681B781A017B6A134403F20C4379
:103D1C003B623B6A00221A80BB681B781946F86824
:103D2C0005F0A7FBFB8803F48043002B00F0FC821A
:103D3C00FB681B681A46BB681B789B0013441B88E6
:103D4C009BB223F4E04323F07003FB82FB681B68F7
:103D5C001A46BB681B789B001A44FB8A43F07F43CE
:103D6C0043F47F0343F4404343F080039BB213803E
:103D7C00DAE2FB8803F48043002B21D0FB681B683C
:103D8C001A46BB681B789B0013441B889BB223F418
:103D9C00E04323F07003A7F88A30FB681B681A46CF
:103DAC00BB681B789B001A44B7F88A3043F07F43FA
:103DBC0043F47F0343F4404343F080039BB21380EE
:103DCC00BB6893F82430012B40F0AE82BB685A6973
:103DDC00B7F886301A44BB685A61BB68DA69B7F821
:103DEC0086301A44BB68DA61BB681A6ABB681B6907
:103DFC009A420BD3BB681B69C7F88C30BB681A6A34
:103E0C00D7F88C30D21ABB681A6217E0BB681B6AF1
:103E1C00002B08D1B7F88630C7F88C30BB6800226D
:103E2C0083F824200AE0BB68002283F82420BB68B6
:103E3C001B6AC7F88C30BB6800221A62BB685B78BF
:103E4C00002B65D1FB681B68FB63FB681B68B3F830
:103E5C0050309BB21A46FB6B1344FB63BB681B7858
:103E6C001A01FB6B134403F20443BB63BB6B1B884B
:103E7C009BB2C3F309039AB2BB6B1A80D7F88C3090
:103E8C003E2B1DD9D7F88C305B09BB64D7F88C302E
:103E9C0003F01F03002B02D1BB6C013BBB64BB6B5B
:103EAC001B889AB2BB6C9BB29B029BB213439BB216
:103EBC006FEA43436FEA53439AB2BB6B1A8044E0F8
:103ECC00D7F88C30002B0AD1BB6B1B889BB26FEAE6
:103EDC0043436FEA53439AB2BB6B1A8035E0D7F871
:103EEC008C305B08BB64D7F88C3003F00103002BDB
:103EFC0002D0BB6C0133BB64BB6B1B889AB2BB6C2E
:103F0C009BB29B029BB213439AB2BB6B1A801CE010
:103F1C00BB685B78012B18D1FB681B687B64FB6862
:103F2C001B68B3F850309BB21A467B6C13447B640D
:103F3C00BB681B781A017B6C134403F204433B648B
:103F4C00D7F88C309AB23B6C1A80FB681868BB6847
:103F5C005969BB681A89D7F88C309BB203F086FC80
:103F6C00E2E1FB681B68B3F850309BB21A46BB68A1
:103F7C001B78DB00134406335B00FA6812681344A9
:103F8C0003F580631B88C3F30903A7F88630BB686D
:103F9C009A69B7F886309A4207D3BB689A69B7F822
:103FAC008630D21ABB689A6102E0BB6800229A6123
:103FBC00BB689B69002B40F0C080BB685B78002B12
:103FCC0026D1FB681B68FB67FB681B68B3F8503095
:103FDC009BB21A46FB6F1344FB67BB681B781A0134
:103FEC00FB6F134403F20443BB67BB6F1B889BB28C
:103FFC00C3F309039AB2BB6F1A80BB6F1B889BB2C9
:10400C006FEA43436FEA53439AB2BB6F1A801AE0CC
:10401C00BB685B78012B16D1FB681B687B66FB6861
:10402C001B68B3F850309BB21A467B6E13447B6608
:10403C00BB681B781A017B6E134403F204433B6686
:10404C003B6E00221A80FB681B687B67BB685B7841
:10405C00002B2BD1FB681B68FB66FB681B68B3F855
:10406C0050309BB21A46FB6E1344FB66BB681B7840
:10407C001A01FB6E134403F20C43C7F88030D7F8D7
:10408C0080301B889BB2C3F309039AB2D7F88030F7
:10409C001A80D7F880301B889BB26FEA43436FEAD3
:1040AC0053439AB2D7F880301A8017E0BB685B781C
:1040BC00012B13D1FB681B68B3F850309BB21A4626
:1040CC007B6F13447B67BB681B781A017B6F1344AF
:1040DC0003F20C433B673B6F00221A80BB681B78D2
:1040EC001946F86805F0C5F9FB8803F48043002BEA
:1040FC0040F01A81FB681B681A46BB681B789B0052
:10410C0013441B889BB223F4E04323F07003A7F8FD
:10411C008830FB681B681A46BB681B789B001A44E6
:10412C00B7F8883043F07F4343F47F0343F44043B4
:10413C0043F080039BB21380F6E0FB8803F48043CA
:10414C00002B21D1FB681B681A46BB681B789B00AF
:10415C0013441B889BB223F4E04323F07003A7F8AD
:10416C004E30FB681B681A46BB681B789B001A44D0
:10417C00B7F84E3043F07F4343F47F0343F440439E
:10418C0043F080039BB21380BB6893F82430012B5F
:10419C0040F0CA80BB685A69B7F886301A44BB68CD
:1041AC005A61BB68DA69B7F886301A44BB68DA61C1
:1041BC00BB681A6ABB681B699A420BD3BB681B6944
:1041CC00C7F88C30BB681A6AD7F88C30D21ABB6827
:1041DC001A6217E0BB681B6A002B08D1B7F886304F
:1041EC00C7F88C30BB68002283F824200AE0BB6837
:1041FC001B6AC7F88C30BB6800221A62BB680022AD
:10420C0083F82420FB681B687B65BB685B78002BFC
:10421C0065D1FB681B68FB65FB681B68B3F8503005
:10422C009BB21A46FB6D1344FB65BB681B781A01E5
:10423C00FB6D134403F20C43BB65BB6D1B889BB237
:10424C00C3F309039AB2BB6D1A80D7F88C303E2B9E
:10425C001DD9D7F88C305B09BB66D7F88C3003F0CE
:10426C001F03002B02D1BB6E013BBB66BB6D1B88D1
:10427C009AB2BB6E9BB29B029BB213439BB26FEA8A
:10428C0043436FEA53439AB2BB6D1A8041E0D7F8AF
:10429C008C30002B0AD1BB6D1B889BB26FEA434359
:1042AC006FEA53439AB2BB6D1A8032E0D7F88C3068
:1042BC005B08BB66D7F88C3003F00103002B02D0EF
:1042CC00BB6E0133BB66BB6D1B889AB2BB6E9BB2D7
:1042DC009B029BB213439AB2BB6D1A8019E0BB6868
:1042EC005B78012B15D1FB681B68B3F850309BB27F
:1042FC001A467B6D13447B65BB681B781A017B6D7A
:10430C00134403F20C433B65D7F88C309AB23B6DE7
:10431C001A80FB681868BB685969BB685A89D7F85A
:10432C008C309BB203F0A2FAFB681B681A46BB6880
:10433C001B789B0013441B889BB223F4E04323F0AF
:10434C004003BB82BB8A83F01003BB82BB8A83F021
:10435C002003BB82FB681B681A46BB681B789B005A
:10436C001A44BB8A43F07F4343F47F0343F4004376
:10437C0043F080039BB21380002318469037BD4650
:10438C0080BD80B487B000AFF8607B600B467B814A
:10439C0013463B817B8903F080039BB2002B0BD02F
:1043AC007B8903F007035A1C13469B001344DB0064
:1043BC00FA6813447B6109E07A8913469B00134425
:1043CC00DB0003F5B473FA6813447B613B89002B63
:1043DC0007D17B6900221A737B689AB27B69DA80F9
:1043EC000BE07B6901221A737B689AB27B691A8194
:1043FC007B681B0C9AB27B695A81002318461C37C8
:10440C00BD4680BC7047000080B588B000AF7860B6
:10441C007B68002B02D1012300F06BBC7B681B680E
:10442C00002B22D07B681B6803F00103002B1CD1EE
:10443C007B681B6803F00203002B16D17B681B689A
:10444C0003F00803002B10D17B681B6803F00403F6
:10445C00002B0AD17B681B6803F01003002B04D1DE
:10446C004FF4A7719748FCF7D6FA974B9B6803F06B
:10447C000C03BB61944B9B6803F480337B617B68BA
:10448C001B6803F00103002B00F08E807B685B68D7
:10449C00002B0CD07B685B68012B08D07B685B68B9
:1044AC00052B04D040F257118648FCF7B4FABB69CF
:1044BC00082B06D0BB690C2B10D17B69B3F5803F60
:1044CC000CD1814B1B6803F40033002B6BD07B6841
:1044DC005B68002B67D1012300F00BBC7B685B6829
:1044EC00012B06D1784B1B68774A43F48033136059
:1044FC002DE07B685B68002B0CD1734B1B68724AF8
:10450C0023F480331360704B1B686F4A23F48023B1
:10451C0013601CE07B685B68052B0CD16A4B1B6835
:10452C00694A43F480231360674B1B68664A43F463
:10453C00803313600BE0644B1B68634A23F48033B5
:10454C001360614B1B68604A23F4802313607B6803
:10455C005B68002B13D0FCF75DFB386108E0FCF7BF
:10456C0059FB02463B69D31A642B01D90323C0E3E0
:10457C00554B1B6803F40033002BF0D014E0FCF710
:10458C0049FB386108E0FCF745FB02463B69D31A4E
:10459C00642B01D90323ACE34B4B1B6803F40033AE
:1045AC00002BF0D100E000BF7B681B6803F0020316
:1045BC00002B70D07B68DB68002B08D07B68DB6835
:1045CC00012B04D04FF4C5713E48FCF724FA7B68EC
:1045DC001B691F2B04D940F28B113A48FCF71BFACC
:1045EC00BB69042B05D0BB690C2B19D17B69002B43
:1045FC0016D1354B1B6803F00203002B05D07B68EA
:10460C00DB68012B01D0012373E32F4B5B6823F490
:10461C00F8527B681B691B022B4913434B603AE031
:10462C007B68DB68002B20D0284B01221A60FCF73A
:10463C00F1FA386108E0FCF7EDFA02463B69D31A4F
:10464C00022B01D9032354E31F4B1B6803F0020315
:10465C00002BF0D01C4B5B6823F4F8527B681B6971
:10466C001B02194913434B6015E0184B00221A60CA
:10467C00FCF7D0FA386108E0FCF7CCFA02463B694B
:10468C00D31A022B01D9032333E30F4B1B6803F01E
:10469C000203002BF0D17B681B6803F01003002B86
:1046AC0000F02981BB69002B40F0A480064B1B68ED
:1046BC0003F40073002B0BD07B689B69002B07D194
:1046CC00012316E390A20008003802400000474284
:1046DC007B68DB69FF2B04D940F2D5119948FCF7B4
:1046EC009AF97B681B6A002B22D07B681B6AB3F596
:1046FC00005F1DD07B681B6AB3F5804F18D07B68B8
:10470C001B6AB3F5C04F13D07B681B6AB3F5004F1F
:10471C000ED07B681B6AB3F5204F09D07B681B6AEF
:10472C00B3F5404F04D04FF4EB718648FCF773F9A6
:10473C007B681A6A844B5B6803F460439A421DD908
:10474C007B681B6A184600F05BFD0346002B01D00A
:10475C000123CEE27C4B5B6823F460427B681B6ACE
:10476C00794913434B60784B5B6823F07F427B683D
:10477C00DB691B06744913434B601CE0724B5B688E
:10478C0023F460427B681B6A6F4913434B606E4B8A
:10479C005B6823F07F427B68DB691B066A49134325
:1047AC004B607B681B6A184600F02AFD0346002B01
:1047BC0001D001239DE27B681B6A5B0B01334FF434
:1047CC00004202FA03F3604A9268120902F00F02E7
:1047DC005E498A5CD3405E4A13605E4B1B68184688
:1047EC00FCF7CCF90346FB73FB7B002B00F08380BA
:1047FC00FB7B7EE27B689B69002B08D07B689B6906
:10480C00012B04D040F206214E48FCF704F97B68DA
:10481C009B69002B59D0504B01221A60FCF7FAF916
:10482C00386108E0FCF7F6F902463B69D31A022B13
:10483C0001D903235DE2444B1B6803F40073002B86
:10484C00F0D07B68DB69FF2B04D940F21A213D487C
:10485C00FCF7E1F87B681B6A002B22D07B681B6A93
:10486C00B3F5005F1DD07B681B6AB3F5804F18D081
:10487C007B681B6AB3F5C04F13D07B681B6AB3F51A
:10488C00004F0ED07B681B6AB3F5204F09D07B68B4
:10489C001B6AB3F5404F04D040F21B212948FCF7AA
:1048AC00BAF8294B5B6823F460427B681B6A264983
:1048BC0013434B60244B5B6823F07F427B68DB69BE
:1048CC001B06214913434B6015E0234B00221A6051
:1048DC00FCF7A0F9386108E0FCF79CF902463B694B
:1048EC00D31A022B01D9032303E2174B1B6803F4E1
:1048FC000073002BF0D17B681B6803F00803002BBE
:10490C004BD07B685B69002B08D07B685B69012B03
:10491C0004D040F23A210B48FCF77DF87B685B69C8
:10492C00002B24D00D4B01221A60FCF773F938616F
:10493C0016E0FCF76FF902463B69D31A022B0FD92C
:10494C000323D6E190A20008003802401CA3000803
:10495C00000000200400002020004742800647424F
:10496C00654B5B6B03F00203002BE2D015E0634B4D
:10497C0000221A60FCF74EF9386108E0FCF74AF99E
:10498C0002463B69D31A022B01D90323B1E15A4BDE
:10499C005B6B03F00203002BF0D17B681B6803F008
:1049AC000403002B00F0BF800023FB777B689B681F
:1049BC00002B0CD07B689B68012B08D07B689B6814
:1049CC00052B04D040F266214D48FCF724F84A4BE5
:1049DC005B6A03F08053002B0DD1474B5B6A464A50
:1049EC0043F080535362444B5B6A03F08053BB60CB
:1049FC00BB680123FB77434B1B6803F48073002BCC
:104A0C0018D1404B1B683F4A43F480731360FCF78A
:104A1C0001F9386108E0FCF7FDF802463B69D31A4E
:104A2C00642B01D9032364E1364B1B6803F48073B8
:104A3C00002BF0D07B689B68012B06D12E4B5B6B57
:104A4C002D4A43F4807353632DE07B689B68002BE5
:104A5C000CD1294B5B6B284A23F480735363264B90
:104A6C005B6B254A23F4806353631CE07B689B6873
:104A7C00052B0CD1204B5B6B1F4A43F480635363B3
:104A8C001D4B5B6B1C4A43F4807353630BE01A4B56
:104A9C005B6B194A23F480735363174B5B6B164A99
:104AAC0023F4806353637B689B68002B15D0FCF761
:104ABC00B1F838610AE0FCF7ADF802463B69D31A4D
:104ACC0041F28832934201D9032312E10A4B5B6B0A
:104ADC0003F40073002BEED01CE0FCF79BF838615C
:104AEC0012E0FCF797F802463B69D31A41F2883280
:104AFC00934209D90323FCE0003802408006474268
:104B0C0090A20008007000407C4B5B6B03F40073B8
:104B1C00002BE6D1FB7F012B05D1784B5B6A774AE2
:104B2C0023F0805353627B685B6A002B0CD07B684C
:104B3C005B6A012B08D07B685B6A022B04D040F2C5
:104B4C00AA216F48FBF767FF7B685B6A002B00F0BC
:104B5C00CF80BB690C2B00F0AB807B685B6A022BAF
:104B6C0040F08F807B689B6A002B09D07B689B6A26
:104B7C00B3F5803F04D040F2B3216148FBF74BFF03
:104B8C007B68DB6A002B2CD07B68DB6AB3F5802F4B
:104B9C0027D07B68DB6AB3F5002F22D07B68DB6AF9
:104BAC00B3F5402F1DD07B68DB6AB3F5801F18D09E
:104BBC007B68DB6AB3F5A01F13D07B68DB6AB3F5A7
:104BCC00C01F0ED07B68DB6AB3F5E01F09D07B6891
:104BDC00DB6AB3F5001F04D04FF42D714848FBF786
:104BEC001AFF7B681B6BB3F5800F0ED07B681B6BB9
:104BFC00B3F5000F09D07B681B6BB3F5400F04D0E5
:104C0C0040F2B5213E48FBF706FF3E4B00221A60EE
:104C1C00FCF700F8386108E0FBF7FCFF02463B6943
:104C2C00D31A022B01D9032363E0344B1B6803F026
:104C3C000073002BF0D1314B9B6823F47D027B6811
:104C4C00996A7B68DB6A19437B681B6B0B432B49A6
:104C5C0013438B602B4B01221A60FBF7DBFF38618F
:104C6C0008E0FBF7D7FF02463B69D31A022B01D9A8
:104C7C0003233EE0214B1B6803F00073002BF0D0A4
:104C8C0036E0204B00221A60FBF7C4FF386108E0C5
:104C9C00FBF7C0FF02463B69D31A022B01D9032351
:104CAC0027E0164B1B6803F00073002BF0D11FE0BC
:104CBC007B685B6A012B01D101231AE00F4B9B68C7
:104CCC007B617B6903F480327B689B6A9A420DD1CD
:104CDC007B6903F470127B68DB6A9A4206D17B69AC
:104CEC0003F440027B681B6B9A4201D0012300E065
:104CFC00002318462037BD4680BD00BF0038024057
:104D0C0090A200086000474280B584B000AF786084
:104D1C0039607B68002B01D10123A4E13B68002B97
:104D2C0007D03B68012B04D04FF44A719348FBF732
:104D3C0072FE934B1B6803F001033A689A4219D92F
:104D4C003B68012B05D18E4B1B688D4A43F0040345
:104D5C0013608B4B1B6823F0010289493B6813439A
:104D6C000B60874B1B6803F001033A689A4201D031
:104D7C00012378E17B681B6803F00203002B31D020
:104D8C007B689B68002B24D07B689B68802B20D091
:104D9C007B689B68902B1CD07B689B68A02B18D0E1
:104DAC007B689B68B02B14D07B689B68C02B10D0A1
:104DBC007B689B68D02B0CD07B689B68E02B08D061
:104DCC007B689B68F02B04D040F23F316B48FBF7BB
:104DDC0022FE6C4B9B6823F0F0027B689B68694950
:104DEC0013438B607B681B6803F00103002B00F0FE
:104DFC00A3807B685B68002B10D07B685B68012B01
:104E0C000CD07B685B68022B08D07B685B68032B3B
:104E1C0004D040F246315948FBF7FDFD7B685B68D6
:104E2C00022B07D1574B1B6803F40033002B21D105
:104E3C00012318E17B685B68032B07D1514B1B687E
:104E4C0003F00073002B15D101230CE17B685B6828
:104E5C00012B07D14B4B1B6803F00203002B09D12C
:104E6C00012300E1474B1B6803F40073002B01D1B5
:104E7C000123F8E0434B9B6823F003027B685B68DB
:104E8C00404913438B60FBF7C5FEF8607B685B6899
:104E9C00022B12D10AE0FBF7BDFE0246FB68D31AC7
:104EAC0041F28832934201D90323DCE0354B9B68F5
:104EBC0003F00C03082BEED13EE07B685B68032B00
:104ECC0012D10AE0FBF7A6FE0246FB68D31A41F2A8
:104EDC008832934201D90323C5E02A4B9B6803F027
:104EEC000C030C2BEED127E07B685B68012B1DD1EA
:104EFC000AE0FBF78FFE0246FB68D31A41F28832B8
:104F0C00934201D90323AEE01E4B9B6803F00C03C4
:104F1C00042BEED110E0FBF77DFE0246FB68D31AA2
:104F2C0041F28832934201D903239CE0154B9B68D4
:104F3C0003F00C03002BEED1114B1B6803F00103A3
:104F4C003A689A4220D23B68012B05D10C4B1B6866
:104F5C000B4A43F004031360094B1B6823F0010256
:104F6C0007493B6813430B60054B1B6803F00103B7
:104F7C003A689A4208D0012375E000BF90A200085D
:104F8C00003C0240003802407B681B6803F00403BD
:104F9C00002B25D07B68DB68002B18D07B68DB6886
:104FAC00B3F5806F13D07B68DB68B3F5A06F0ED0C0
:104FBC007B68DB68B3F5C06F09D07B68DB68B3F541
:104FCC00E06F04D040F2AB312948FBF724FD294BAC
:104FDC009B6823F4E0627B68DB68264913438B6093
:104FEC007B681B6803F00803002B26D07B681B69C9
:104FFC00002B18D07B681B69B3F5806F13D07B68CE
:10500C001B69B3F5A06F0ED07B681B69B3F5C06F3D
:10501C0009D07B681B69B3F5E06F04D040F2B23164
:10502C001348FBF7F8FC134B9B6823F460527B6826
:10503C001B69DB000F4913438B6000F023F8024619
:10504C000C4B9B681B0903F00F030B49CB5C22FA3A
:10505C0003F30A4A13600A4B1B681846FBF78EFDD4
:10506C000346FB72FB7A18461037BD4680BD00BF65
:10507C0090A20008003802401CA300080000002089
:10508C00040000202DE9B04F8EB000AF584B9B6848
:10509C00FB62FB6A03F00C030C2B0DD00C2B00F203
:1050AC009280042B02D0082B03D08CE0514B3B6335
:1050BC0097E0514B3B6394E0FB6A9B0C03F00F02AF
:1050CC004E4B9B5CBB62FB6A9B0D03F003030133ED
:1050DC007B62474B9B6803F48033002B21D0BB6A67
:1050EC000022BB61FA61444BD7E906894A4603FBAF
:1050FC0002F20023444604FB03F313443E4A4446A5
:10510C00A4FB02010B4419467B6A00223B617A61C5
:10511C00D7E90423FBF72CF802460B4613467B63B6
:10512C004EE0BB6A00229A46934652465B464FF0CD
:10513C0000004FF00001590141EAD26150010246D2
:10514C000B46B2EB0A0863EB0B094FF000024FF071
:10515C0000034FEA891343EA98634FEA8812B2EBD3
:10516C00080463EB09054FF000024FF00003EB005D
:10517C0043EA5473E20014461D4614EB0A033B60E9
:10518C0045EB0B037B604FF000024FF00003D7E9B7
:10519C00004529468B0220462946044643EA94538F
:1051AC0001468A02104619467B6A0022BB60FA60EF
:1051BC00D7E90223FAF7DCFF02460B4613467B6362
:1051CC007B6B3B630DE00A4B5B685B0B03F00703E7
:1051DC003B623B6A01334FF4004202FA03F33B6338
:1051EC0000BF3B6B18463837BD46BDE8B08F00BFDB
:1051FC00003802400024F400001BB70010A3000884
:10520C0080B487B000AF786000233B61294B9B686A
:10521C0003F0F003002B2CD1264B5B6A03F0805378
:10522C00002B05D0244B1B6803F4C0537B6116E0A4
:10523C00204B5B6A1F4A43F0805353621D4B5B6AE1
:10524C0003F08053FB60FB681B4B1B6803F4C053DB
:10525C007B61184B5B6A174A23F0805353627B695E
:10526C00B3F5C05F05D17B68B3F5404F01D1012385
:10527C003B613B69012B05D1104B1B680F4A43F076
:10528C00040313600D4B1B6823F001020B493B69AF
:10529C0013430B60094B1B6803F001033A699A42F4
:1052AC0001D0012300E0002318461C37BD4680BC0A
:1052BC00704700BF0038024000700040003C0240C4
:1052CC0080B485B000AF78607B680022A3F84420DE
:1052DC004FF43F43FB60FB689AB27B68A3F8402015
:1052EC00002318461437BD4680BC704780B485B087
:1052FC0000AF78604FF43F43FB607B68B3F84030FD
:10530C009AB2FB689BB2DB439BB213409AB27B68A8
:10531C00A3F84020002318461437BD4680BC7047C4
:10532C0084B080B483B000AF786007F1140080E8DB
:10533C000E007B680122A3F840207B680022A3F8B2
:10534C0040207B680022A3F844207B680022A3F84D
:10535C005020002318460C37BD4680BC04B0704763
:10536C0080B49DB000AF78603960002387F86F304F
:10537C007A683B681B789B0013441B889BB223F410
:10538C00EC4323F07003A7F86C303B68DB78032BFD
:10539C001FD801A252F823F0B5530008D1530008CE
:1053AC00E7530008C3530008B7F86C3043F400739C
:1053BC00A7F86C3012E0B7F86C3043F4C063A7F870
:1053CC006C300BE0B7F86C3043F48063A7F86C30AA
:1053DC0004E0012387F86F3000E000BF7A683B6877
:1053EC001B789B001A44B7F86C3043F07F4343F4AE
:1053FC007F0343F4004343F080039BB213807A682D
:10540C003B681B789B0013441B889BB223F4E0433E
:10541C0023F070039AB23B681B789BB21343A7F836
:10542C0066307A683B681B789B001A44B7F8663084
:10543C0043F07F4343F47F0343F4004343F0800382
:10544C009BB213803B681B7B002B40F078813B6840
:10545C005B78002B00F084807B68BB617B68B3F8C1
:10546C0050309BB21A46BB691344BB613B681B7836
:10547C001A01BB69134403F580637B613B68DB88CD
:10548C005B089BB25B009AB27B691A807A683B68B6
:10549C001B789B0013441B887B827B8A03F04003A0
:1054AC00002B1BD07A683B681B789B0013441B882D
:1054BC009BB223F4E04323F070033B827A683B6891
:1054CC001B789B001A443B8A43F07F4343F47F03D1
:1054DC0043F4004343F0C0039BB213803B68DB787A
:1054EC00012B20D07A683B681B789B0013441B88E7
:1054FC009BB223F4E04323F04003BB81BB8983F0D0
:10550C002003BB817A683B681B789B001A44BB89DB
:10551C0043F07F4343F47F0343F4004343F08003A1
:10552C009BB21380D5E27A683B681B789B001344CE
:10553C001B889BB223F4E04323F04003FB817A6881
:10554C003B681B789B001A44FB8943F07F4343F470
:10555C007F0343F4004343F080039BB21380B8E213
:10556C007B683B637B68B3F850309BB21A463B6B4D
:10557C0013443B633B681B781A013B6B134403F5E4
:10558C008163FB623B68DB885B089BB25B009AB271
:10559C00FB6A1A807B68BB627B68B3F850309BB2A5
:1055AC001A46BB6A1344BB623B681B781A01BB6A80
:1055BC00134403F20C437B627B6A1B889BB2C3F3DC
:1055CC0009039AB27B6A1A803B681B693E2B1DD972
:1055DC003B681B695B09BB663B681B6903F01F03D7
:1055EC00002B02D1BB6E013BBB667B6A1B889AB257
:1055FC00BB6E9BB29B029BB213439BB26FEA4343BD
:10560C006FEA53439AB27B6A1A8026E03B681B69A7
:10561C00002B0AD17B6A1B889BB26FEA43436FEA6B
:10562C0053439AB27B6A1A8017E03B681B695B088C
:10563C00BB663B681B6903F00103002B02D0BB6EF9
:10564C000133BB667B6A1B889AB2BB6E9BB29B0212
:10565C009BB213439AB27B6A1A807A683B681B78B8
:10566C009B0013441B887B847B8C03F48043002BAE
:10567C001BD07A683B681B789B0013441B889BB239
:10568C0023F4E04323F070033B847A683B681B7877
:10569C009B001A443B8C43F07F4343F47F0343F459
:1056AC00404343F080039BB213803B681B78002B74
:1056BC0024D17A683B681B789B0013441B889BB2EF
:1056CC0023F4804323F07003BB83BB8B83F48053A0
:1056DC00BB83BB8B83F40053BB837A683B681B781A
:1056EC009B001A44BB8B43F07F4343F47F0343F48A
:1056FC00004343F080039BB21380EAE17A683B6875
:10570C001B789B0013441B889BB223F4804323F02B
:10571C007003FB83FB8B83F40053FB837A683B6839
:10572C001B789B001A44FB8B43F07F4343F47F03AD
:10573C0043F4004343F080039BB21380C9E13B6800
:10574C00DB78022B1ED17A683B681B789B001344D4
:10575C001B889BB223F4E04323F07003A7F862305C
:10576C007A683B681B789B001A44B7F8623043F0A8
:10577C007F4343F47F0343F4014343F080039BB224
:10578C0013801DE07A683B681B789B0013441B88D0
:10579C009BB223F4E24323F07003A7F864307A68D9
:1057AC003B681B789B001A44B7F8643043F07F4386
:1057BC0043F47F0343F4004343F080039BB2138014
:1057CC007B68FB657B68B3F850309BB21A46FB6D67
:1057DC001344FB653B681B781A01FB6D134403F5FE
:1057EC008063BB653B681B895B089BB25B009AB20C
:1057FC00BB6D1A807B687B657B68B3F850309BB2BD
:10580C001A467B6D13447B653B681B781A017B6DD4
:10581C00134403F581633B653B685B895B089BB272
:10582C005B009AB23B6D1A803B685B78002B40F0B2
:10583C0093807A683B681B789B0013441B88A7F8FD
:10584C004030B7F8403003F48043002B1BD07A680B
:10585C003B681B789B0013441B889BB223F4E043EA
:10586C0023F07003FB877A683B681B789B001A4413
:10587C00FB8F43F07F4343F47F0343F4404343F0F7
:10588C0080039BB213807A683B681B789B0013449F
:10589C001B88BB87BB8F03F04003002B1BD07A689F
:1058AC003B681B789B0013441B889BB223F4E0439A
:1058BC0023F070037B877A683B681B789B001A4443
:1058CC007B8F43F07F4343F47F0343F4004343F067
:1058DC00C0039BB213807A683B681B789B0013440F
:1058EC001B889BB223F4804323F070033B873B8FD0
:1058FC0083F480533B873B8F83F400533B877A6858
:10590C003B681B789B001A443B8F43F07F4343F466
:10591C007F0343F4004343F080039BB213807A6807
:10592C003B681B789B0013441B889BB223F4E04319
:10593C0023F04003FB867A683B681B789B001A4473
:10594C00FB8E43F07F4343F47F0343F4004343F067
:10595C0080039BB21380BCE07A683B681B789B0089
:10596C0013441B88A7F84E30B7F84E3003F480432D
:10597C00002B1DD07A683B681B789B0013441B8856
:10598C009BB223F4E04323F07003A7F84C307A6801
:10599C003B681B789B001A44B7F84C3043F07F43AC
:1059AC0043F47F0343F4404343F080039BB21380E2
:1059BC007A683B681B789B0013441B88A7F84A3015
:1059CC00B7F84A3003F04003002B1DD07A683B68CF
:1059DC001B789B0013441B889BB223F4E04323F0F9
:1059EC007003A7F848307A683B681B789B001A4410
:1059FC00B7F8483043F07F4343F47F0343F400434C
:105A0C0043F0C0039BB213803B68DB78012B24D09E
:105A1C007A683B681B789B0013441B889BB223F469
:105A2C00E04323F04003A7F84430B7F8443083F048
:105A3C002003A7F844307A683B681B789B001A4413
:105A4C00B7F8443043F07F4343F47F0343F40043FF
:105A5C0043F080039BB213801DE07A683B681B788F
:105A6C009B0013441B889BB223F4E04323F04003B8
:105A7C00A7F846307A683B681B789B001A44B7F845
:105A8C00463043F07F4343F47F0343F4004343F039
:105A9C0080039BB213807A683B681B789B0013448D
:105AAC001B889BB223F4804323F07003A7F8423089
:105ABC007A683B681B789B001A44B7F8423043F075
:105ACC007F4343F47F0343F4004343F080039BB2D2
